:1000000000600220A1090000D9090000DB090000FE
:10001000DD090000DF090000E1090000E30900003C
:10002000000000000000000000000000E5090000E2
:10003000E709000000000000E90900002D0D0000A4
:10004000090A0000090A0000090A0000090A000064
:10005000090A0000090A0000090A0000090A000054
:10006000090A0000090A0000090A0000090A000044
:10007000090A0000090A0000090A0000090A000034
:10008000090A0000090A0000090A0000090A000024
:10009000090A0000090A0000090A0000090A000014
:1000A000090A0000090A0000090A0000090A000004
:1000B000090A0000090A0000090A0000090A0000F4
:1000C000090A0000090A0000090A0000090A0000E4
:1000D000090A0000090A0000090A0000090A0000D4
:1000E000090A0000090A0000090A0000090A0000C4
:1000F000090A0000090A0000090A0000090A0000B4
:10010000090A0000090A0000090A0000090A0000A3
:10011000090A0000090A0000090A0000090A000093
:10012000090A0000090A0000090A0000090A000083
:10013000090A0000090A0000090A0000090A000073
:10014000090A0000090A0000090A0000090A000063
:10015000090A0000090A0000EB090000ED0900008F
:10016000090A0000090A000065100000090A0000E1
:10017000090A0000090A0000090A0000090A000033
:10018000090A0000090A0000090A0000090A000023
:10019000090A0000090A0000090A0000090A000013
:1001A000090A0000090A0000090A0000090A000003
:1001B000090A0000090A0000090A0000090A0000F3
:1001C000090A0000090A0000090A0000090A0000E3
:1001D000090A0000090A0000090A0000090A0000D3
:1001E000090A0000090A0000090A0000090A0000C3
:1001F000090A0000090A0000090A0000090A0000B3
:10020000090A0000090A0000090A0000090A0000A2
:10021000090A0000090A0000090A0000090A000092
:10022000090A0000090A0000090A0000090A000082
:10023000090A0000090A0000090A0000090A000072
:10024000090A0000090A0000090A0000090A000062
:10025000090A0000090A0000090A0000F10900006B
:10026000090A0000090A0000090A0000090A000042
:100270007510000085100000090A0000090A00003E
:10028000090A0000090A0000090A0000090A000022
:10029000090A00000117000011170000090A0000F8
:1002A000090A0000090A0000090A0000090A000002
:1002B000090A0000090A0000090A0000090A0000F2
:1002C000090A0000090A0000090A0000090A0000E2
:1002D000090A0000090A0000090A0000090A0000D2
:1002E000090A0000090A0000090A0000090A0000C2
:1002F000090A0000090A0000090A0000090A0000B2
:10030000090A0000090A0000090A0000090A0000A1
:10031000090A0000090A0000090A0000090A000091
:10032000090A0000090A0000090A0000090A000081
:10033000090A0000090A0000090A0000090A000071
:10034000090A0000090A0000090A0000090A000061
:10035000090A0000090A0000090A0000090A000051
:1003600095100000FD090000090A0000090A0000BC
:10037000090A0000090A0000090A0000090A000031
:10038000090A0000090A0000090A0000090A000021
:10039000090A0000090A0000090A0000090A000011
:1003A000090A0000090A0000FD0C00000D0D000004
:1003B000090A0000F9090000090A0000090A000002
:1003C000090A0000090A0000F7090000FF090000FF
:1003D0001D0D0000090A0000090A0000090A0000BA
:1003E000090A0000090A0000090A0000090A0000C1
:1003F000090A0000090A0000090A0000090A0000B1
:10040000090A0000090A0000090A0000090A0000A0
:10041000090A0000090A0000090A0000090A000090
:10042000090A0000090A0000090A0000090A000080
:10043000090A0000090A0000090A0000090A000070
:10044000090A0000090A0000090A0000090A000060
:10045000B5100000030A0000050A0000090A0000A8
:10046000090A0000090A0000090A0000090A000040
:08047000090A0000090A00005E
:1004780010B5054C237833B9044B13B1044800E098
:1004880000BF0123237010BD780000200000000089
:100498009C1A000008B5034B1BB10349034800E050
:1004A80000BF08BD000000007C0000209C1A00006E
:1004B80053B94AB9002908BF00281CBF4FF0FF31C3
:1004C8004FF0FF3000F07CB9ADF1080C6DE904CEB7
:1004D80000F006F8DDF804E0DDE9022304B0704717
:1004E8002DE9F0478C46089D04468A46002B4AD1E0
:1004F8008A42174662D9B2FA82F64EB1C6F1200E88
:1005080001FA06F3B740B44020FA0EFE4EEA030A99
:100518004FEA1748230C1FFA87F9BAFBF8FE08FBC5
:100528001EAA0EFB09F243EA0A439A420BD9FB18AA
:100538000EF1FF312CBF012000209A4202D9002879
:1005480000F02A818E469A1AA3B2B2FBF8F008FB93
:10055800102200FB09F943EA0244A14507D93C19D6
:1005680000F1FF3302D2A14500F210811846A4EB36
:10057800090440EA0E4000211DB1F4400023C5E9FA
:100588000043BDE8F0878B4208D9002D00F0F280C7
:100598000021C5E9000C0846BDE8F087B3FA83F1ED
:1005A80000294ED16345C0F0E880824240F2E580E0
:1005B8000846002DE5D0C5E9004AE2E702B9FFDEAA
:1005C800B2FA82F6002E40F099808B1A4FEA124E4A
:1005D8001FFA82F801214FEA144CB3FBFEF20EFB1E
:1005E800123008FB02F94CEA004CE14508D917EB38
:1005F8000C0C02F1FF3302D2E14500F2CA801A4620
:10060800ACEB090CA3B2BCFBFEF00EFB10CC08FB54
:1006180000F843EA0C44A0450ED93C1900F1FF3319
:100628002CBF4FF0010C4FF0000CA04503D9BCF1D2
:10063800000F00F0A8801846A4EB080440EA024026
:100648009AE7C1F120048B4002FA01FE0CFA01F688
:10065800E24020FA04F72CFA04FC00FA01F81343EC
:100668003E431F0C320C1FFA83F9BCFBF7F007FB63
:1006780010CC00FB09FA42EA0C4CE24508D913EB0E
:100688000C0C00F1FF3202D2E24500F289801046DC
:10069800ACEB0A0CB6B2BCFBF7FA07FB1ACC0AFBA8
:1006A80009F946EA0C42914506D99A180AF1FF362B
:1006B80001D291457AD8B2464AEA0040A2EB090233
:1006C800A0FB0E67BA42B446B94602D307D1B0457B
:1006D80005D2B6EB0E0C67EB030301389946002DE3
:1006E8006BD0B8EB0C0362EB090202FA04F4CB40BE
:1006F800CA4000211C43C5E9004242E7B740C6F1A1
:10070800200201FA06F3B44021FA02FC4FEA174E20
:1007180020FA02F21FFA87F8BCFBFEF11A430EFB1F
:1007280011CC01FB08F0130C43EA0C4C604507D9C7
:1007380017EB0C0C01F1FF3301D2604533D8194691
:10074800ACEB000C92B2BCFBFEF00EFB10CC00FB35
:1007580008F342EA0C4C634507D917EB0C0C00F17F
:10076800FF3201D2634525D81046ACEB030340EABB
:10077800014130E72946284603E7841A6CEB030356
:1007880001209A4615E702383C4455E702383C44B4
:10079800EDE6023ABC4433E7AEF1020E3B44D2E642
:1007A80002389C4474E70239BC44C9E7AAF1020A3A
:1007B8001A4481E70238BC44D7E72946E1E600BF7E
:1007C800704700BF10B50A4B4FF4007448B95C601D
:1007D80008484FF4806431B9446080212AB95960CF
:1007E80010BD9C60F4E78460F7E79960F8E700BF04
:1007F8000004055000820D502DE9F0410746884657
:1008080016460125541EE4B2023401221146104650
:10081800FFF7D8FF384600F0D3FA002211461046F9
:10082800FFF7D0FFB54202D2404600F0C9FA0135C1
:10083800AC42EAD1BDE8F0814FF4007110B54FF435
:1008480080641E4B1E48D3F8A4205960024042F031
:1008580003025961C3F8A4201A4AD2F8A8105460B8
:1008680054618024014041F00301C2F8A810D3F874
:100878009C105C60014041F003015C61C3F89C106E
:100888004FF40051D2F8B4309161034043F00C03A7
:10089800C2F8B430002211461046FFF793FF6420D7
:1008A80000F08EFA022250217820FFF7A5FFBDE85C
:1008B8001040002211461046FFF784BF000405507F
:1008C800F0F0FC8F00820D5010B51B4CE2689204CA
:1008D80010D43C2103220846FFF78EFFE3689B04EF
:1008E80020D4012210461146FFF76CFF142000F0B7
:1008F80067FAF3E7002201201146FFF763FFFA20A9
:1009080000F05EFA002201211046FFF75BFFFA2093
:1009180000F056FA002101220846FFF753FFFA209B
:1009280000F04EFA002210461146FFF74BFFBDE8D3
:100938001040782000F044BA00820D50704700F053
:10094800F9B908B500F0E8FC00F00AFF00BF08BDDF
:1009580070B5FFF7F4FFFFF7F1FF094B0BB1FFF795
:100968006BFF084D084E094C2B7813B90EB1FFF7F1
:10097800ABFF204600F00CF8FFF7E3FFF4E700BFF9
:100988004108000094000020D108000098000020D1
:10099800036803B11847704772B61A481A491B4AC8
:1009A800914204D250F8043B41F8043BF8E7184858
:1009B80018494FF00002884202D240F8042BFAE7A7
:1009C80000F014FF00F0D6FF62B6FFF7C1FFFEE7A4
:1009D800FEE7FEE7FEE7FEE7FEE7FEE7FEE7FEE7E7
:1009E800FEE77047704770477047FEE7FEE7FEE78F
:1009F800FEE770477047FEE7FEE7FEE7FEE7704751
:100A0800FEE77047741B00000000002078000020FB
:100A180078000020400E00201D287FD8DFE800F075
:100A28000F14181C2024282E32373B3E4244484CD1
:100A3800585C5E6266787A7E686C707450540120E7
:100A48000423087013707047012005230870F9E724
:100A5800012006230870F5E7012007230870F1E755
:100A680001200A230870EDE701200B230870E9E74D
:100A780002230B70082313700120704702230B70A8
:100A88000723F8E7022301200B7010707047022338
:100A98000B700423EFE702230B70ECE700230B70C5
:100AA8000323E8E70023F3E702230B700A23E2E7B6
:100AB80002230B700923DEE702230B700623DAE713
:100AC800012002230870BDE7012003230870B9E75D
:100AD80002230B700023CEE70023DDE70120092362
:100AE8000870AFE7012008230870ABE70023CAE7C6
:100AF80000230B700223BEE701200C230870A1E736
:100B080001200D2308709DE701200E23087099E746
:100B18000223C4E702230B700523ACE700207047CB
:100B280002280DD8074B53F8200048B11F2907D8D1
:100B3800012303FA01F141610AB141607047816004
:100B4800704700BFC41A000050B1430803F574236E
:100B580003F51073B3FBF0F0002808BF01207047BD
:100B68004FF47A7070470000002319462DE9F04FC2
:100B78004248434C434D444E85B01A5DFF2A19D074
:100B880055F823209F00D2F844C1BCF1000F01D0D2
:100B9800C2F84411D2F840C1BCF1000F0AD0C2F823
:100BA800401113F800C0BCF1000F03D0BF59C2F8C0
:100BB800447519540133052BDFD1344A002392467A
:100BC800334F995C09B1D95D51B90133102BF8D174
:100BD80005B0BDE8F08FFFF7B7FF19E0012429E061
:100BE80000F0C8F800250646DFF8B4B0DFF8B49086
:100BF800DFF8B4801AF80530002B3AD07B5D002B63
:100C080037D05BF82500A9000028E4D1214B1868EB
:100C180039F81540B8F800306A00A342DED94CB163
:100C2800B6FBF0F41C4B00FB1464C85884422CBF7C
:100C38000024012400238DF80E308DF80F30174B57
:100C4800E95C0193A14214D0DFF860C050190DF19E
:100C58000E010DF10F021CF80000FFF7DDFE40B198
:100C6800019B2246EC549DF80F109DF80E00FFF7EB
:100C780057FF0135102DBDD1AAE700BF8001002024
:100C880008000020001B00006C0100200C0100205F
:100C9800FC000020040000201C0100205C01002052
:100CA8009C000020DC00002000000020D01A00007A
:100CB800F8B50B4C0B4E0C4F0C4D0D4B03EB44038E
:100CC8009A5D42B1226832B100222260BFF34F8F91
:100CD800DB5903B198470434AC42EED1F8BD00BFEC
:100CE80000A10D5000BEE45F04BEE45F20A10D50DA
:100CF80088010020024B1B780BB1FFF7D9BF704762
:100D0800C8010020024B1B780BB1FFF7D1BF704719
:100D1800C801002008B5024B0BB100E000BF08BDB8
:100D280000000000024A136801331360704700BFD7
:100D3800CC01002008B500F043FD4FF47A72084B4F
:100D480000211B68B3FBF2F3002B08BF4FF47A4372
:100D5800044A013B1160536007239160136008BD8A
:100D68001000002010E000E0014B1868704700BF39
:100D7800CC01002030B50E4D0E4C2968A2682B68B6
:100D88009942FAD1636801339A1A0B4B1B6863B115
:100D98000A48B3FBF0F3002B08BF4023B2FBF3F380
:100DA8004FF47A7000FB013030BD4023F6E700BFF6
:100DB800CC01002010E000E01000002040420F00AD
:100DC80070B50546054C266823689B1BAB4200D3CB
:100DD80070BD00F0C5FC00BFF6E700BFCC010020E5
:100DE8000020704770477047F8B504460F4616460E
:100DF800FFF7C0FF05463C44FFF7BCFF401BB0426D
:100E080004D22368002BF7D0012003E020680030CB
:100E180018BF0120F8BD10B5044600F0ABFC204611
:100E280010BD000038B5044600254FF47A7063758C
:100E38004FF41653C4E901501948E583206025840E
:100E480021612275A36165842946E560A575E5756C
:100E5800A58365624FF4807204F1280000F0C1FD9B
:100E6800012384F82851294684F8293184F830511F
:100E780084F82A51402284F82B5104F59A70C4F85A
:100E88002C5100F0AEFDFF234FF4806284F87431DA
:100E9800294604F2751000F0A4FD204638BD00BFB5
:100EA8001C1B000030B571B16AB1802A28BF8022AE
:100EB8000024438CB3F5806F06D3436A0133436241
:100EC8000134A242F5D830BDC38B0D5D034483F8CD
:100ED8007551C38B0133C3F30903C383438C0133B7
:100EE8009BB24384ECE700002DE9F843837D054677
:100EF800002B42D00369002B3FD0C37D13B10122E0
:100F08001F4B1A6300264FF0FF3380274FF0280944
:100F18002C69DFF870803A46C4F80883C4F84C613D
:100F2800C4F85061C4F81461C4F82461C4F8746149
:100F3800C4F88034D4F80032314643F00053C4F882
:100F4800003295F8280107FB0090284400F049FD7D
:100F580095F8283107FB03932B44C4F80437012381
:100F6800C4F80877A36285F82A3185F82B61FFF762
:100F780001FFC5F82C01C4F80483BDE8F88300BF5D
:100F880000E010502002182038B590F82A310446A5
:100F9800E3B1D1F80C5790F82B31802D28BF80256C
:100FA800AB4213D290F82B2190F8283190F82B11EE
:100FB800AA1A283101EBC3110144FFF773FFEDB200
:100FC80080F82B51FFF7D6FEC4F82C0138BD38B590
:100FD800837D0446002B3FD00169E9B3D1F8143171
:100FE80013B9D1F8803433B10023C1F814314FF06C
:100FF800FF33C1F88034D1F8503113B10023C1F860
:101008005031D1F8743113B10023C1F87431D1F8DB
:10101800243113B10023C1F82431D1F84C31DBB1AC
:1010280000252046C1F84C51FFF7AEFF802294F806
:101038002801294602FB0040283000F0D2FC84F841
:101048002A5184F82B51FFF795FEC4F82C0120464D
:10105800BDE83840FFF748BF38BD0000024B1868AC
:1010680008B1FFF7B4BF7047C00C0020024B1868E6
:1010780008B1FFF7ACBF7047C40C0020024B1868DA
:1010880008B1FFF7A4BF7047C80C002008B5054B8E
:10109800186808B1FFF79BFFBDE80840024800F058
:1010A8003BBB00BFCC0C002000800C5008B5054BA2
:1010B800186808B1FFF78BFFBDE80840024800F048
:1010C8002BBB00BFD00C002000401050827D10B513
:1010D8005AB102694AB1EFF3108472B690F82A3116
:1010E80023B9FFF701FF84F3108810BDFFF76FFFE6
:1010F800F9E710B50446FFF7E9FF608C10BD10B59D
:101108000446FFF7E3FFEFF3108272B6638C9BB2DD
:1011180023B982F310884FF0FF3010BD238C23448D
:1011280093F87501238CC0B20133C3F309032384F8
:10113800638C013B9BB2638482F3108894F874310A
:101148001840EAE710B50446FFF7C0FFEFF3108236
:1011580072B6638C9BB223B982F310884FF0FF30CC
:1011680010BD238C234493F8750194F8743118400A
:1011780082F31088F4E700002DE9F048837D1446D7
:10118800002B3DD00369002B3AD000293AD0A2B3F6
:10119800C37D13B101221E4B1A6300230FF2680CA2
:1011A800DCE900BC01270569C5F86831C5F83031AC
:1011B800C5F83C17C5F840472F6582699A4208BFB1
:1011C8004FF4165200231BEB02004CEB0301FFF710
:1011D8006FF900FB04F24FF4B47102F5FA72284675
:1011E800FFF702FE064640B96F654FF4FA624FF406
:1011F80098712846FFF7F8FD34462046BDE8F08888
:101208001C46FAE70C46F8E7FF1AB7000000000092
:1012180000E0105090F87421114080F8301101223C
:1012280000F59871FFF7A8BF2DE9F84380461646E8
:101238000F4669B382B3002400F59A79A64228D9EB
:10124800351B98F874C1402D28BF4025BCF1FF0F0D
:1012580007EB04010BD048460A46531AAB420AD2A0
:1012680012F8013B0CEA030300F8013BF5E72A46B4
:10127800484600F0ABFB2A4649464046FFF77CFF4C
:10128800A842044405D1A642D8D9FFF75AFBD5E7AE
:101298000C462046BDE8F8831446FAE710B5072344
:1012A800062206490648FFF7BDFDBDE81040132396
:1012B800122204490448FFF7B5BD00BF00700C5066
:1012C800D001002000600C5048070020437E10B475
:1012D8007BB102696AB184685CB1C368CB1A002B20
:1012E80007DB037E1BB12144C16010BC1047437665
:1012F800FBE710BC7047000038B5FFF735FD054621
:10130800044B1C682CB120462946FFF7DFFF6468B0
:10131800F8E738BDD40C0020FFF7EEBF90F868203E
:1013280090F869309B1AC26E002AA8BF013323EADD
:10133800E37070477047704710B5044600F01AFA1A
:10134800204610BD0C4B98420FD003F580539842AD
:101358000DD003F5805398420BD00849084B094A31
:1013680088420CBF18461046704707487047074820
:1013780070470748704700BF00600C50004010508D
:10138800340E0020380E0020280E00202C0E0020DD
:10139800300E00200346C06E002803DB4FF0FF32FA
:1013A800DA66704793F8680093F86920824281BF33
:1013B800421C83F868201B1893F8480098BF4FF028
:1013C800FF3070470346C06E00280FDA93F8682094
:1013D80093F86910914207D9511C83F868101A4490
:1013E80092F84800D86670474FF0FF307047000009
:1013F80070B5044600254FF47A702026C4E90150E0
:1014080063761A481A4B2060E361C4E904512276D6
:1014180029463246E56084F8205004F1240000F0A3
:10142800E0FA32462946A4F8445004F1480000F096
:10143800D8FA4FF0FF33A4F86850E36632462946DD
:1014480004F1700000F0CDFAA4F8905084F892509E
:1014580084F8935084F8945084F89550C4E926553C
:1014680084F8A050C4F8A450204670BD481B000062
:10147800801A060090F8933043B190F894302BB955
:1014880090F8953013F1FF3318BF012318467047C1
:1014980008B50246FFF7EEFF58B192F890301F2BBF
:1014A80012D8581C82F890001A4482F87010012053
:1014B80008BD92F844301F2BFAD8581C82F8440013
:1014C8001A4482F82410F2E70020F1E770B50446C8
:1014D80011B31AB3FFF7CEFF78B1002090421CD0A9
:1014E80094F890301F2B18D80D5C5E1C234484F8A8
:1014F8009060013083F87050F0E782420DD094F884
:1015080044301F2B09D80D5C5E1C234484F84460CA
:10151800013083F82450F0E7084670BD1046FCE718
:1015280000214FF0FF33A0F86810C366202248302E
:1015380000F057BA08B5012380F89530FFF7F0FF9F
:10154800002008BD022370B580F89530D0F89C3093
:1015580004460D4643B100260122A0F8906080F8A9
:101568009420984784F89460002384F891302DB132
:1015780094F8903023B194F870302B70002070BD2F
:10158800FF23FAE710B543690446BBB190F89520EC
:10159800012A19D10022D3F80C3784F868209BB2AD
:1015A8004FF0FF32202B184628BF2020E266D4F8DF
:1015B800982084F869000AB103B19047002084F8A4
:1015C800950084F8940010BD022AF7D1D3F8443767
:1015D8009BB2202B28BF202380F89130EEE790F8AB
:1015E800933063B1436953B10022C3F84C212022E0
:1015F8004830C3F80407C3F8082701221A62704765
:1016080090F89330B3B14269A2B190F8903063B1C9
:101618000021703080F82110C2F86811C2F83C0728
:10162800C2F84037012353627047FF2380F87030B7
:101638000123EDE7704737B590F893300546002B46
:1016480058D04469002C55D0D4F814312BB100235C
:10165800C4F814310D23C4F8D034D4F83C3153B154
:1016680000232846C4F83C31FFF764FF2846FFF7FB
:10167800B6FF01232361D4F8403173B10023C4F8C5
:101688004031FF2302A901F8013D2846FFF75AFF20
:101698002846FFF7B5FF01232361D4F84C317BB10D
:1016A8000022C4F84C21D4F80C3785F868209BB286
:1016B800202B28BF202385F869304FF0FF33EB66D5
:1016C800D4F8683153B10023C4F86831D4F84437EA
:1016D8009BB2202B28BF202385F89130D4F8043101
:1016E80043B100232846C4F80431FFF74BFF2846CE
:1016F800FFF775FF03B030BD024B186808B1FFF75C
:101708009ABF7047280E0020024B186808B1FFF7EF
:1017180092BF70472C0E002008B538B1FFF712FEB3
:10172800006818B1BDE80840FFF785BF08BD000094
:1017380010B50523042206490648FFF759FEBDE8FF
:1017480010400B230C2204490448FFF751BE00BF88
:1017580000800C50D80C002000401050800D002054
:1017680008B5FFF701FA024B0BB100E000BF08BD56
:101778000000000000F022B9074B084AC3F800082F
:10178800D3F8041801F00301814201D0013A00D1D5
:10179800704700BFF4E700BF0000125041420F003D
:1017A800064BD3F81C231C2A05D1D3F82003431E6B
:1017B8005842584170470020704700BF00C0FF00E2
:1017C800064B0749D3F80428064B02F00302012A06
:1017D80018BF0B46044A1360704700BF0000125040
:1017E8000090D0030020A1071000002008B50320B6
:1017F800FFF7C2FF4D4BD3F81C331C2B02BF01224D
:101808004B4B1A600022D30003F57F0303F54043D6
:10181800D3F80014481E033005D8D3F80434013235
:10182800402A0B60EFD1434B1A680AB9C8221A60E4
:10183800FFF7B6FF38B1404B1A68404B9A429EBF3B
:101848003F4B404A1A60FFF7ABFF10B13E4B3F4A8F
:101858001A60FFF7A5FF38B134223D4B1A603D4AA4
:10186800136823F4002313603B4B4FF4FA50D3F86A
:1018780000263A49D20744BF6FF00102C3F8002698
:101888000322374B1A600022C3F88820354A364BAA
:101898000A600B608A608B600A610B618A618B61E8
:1018A8002249D1F82426C2F30803C2F3094242436D
:1018B80044F6206083F48073883300FB03234FF4DD
:1018C800FA20B3FBF0F200FB1233B3F57A3F0B4674
:1018D8004FF47A60254928BF013202F01F02C1F88F
:1018E8000429D3F82026C2F30803C2F3094242436D
:1018F80042F6041083F4807303F2172300FB0323DA
:101908004FF47A701B0AB3FBF0F200FB1233B3F505
:10191800FA7F28BF0132C1F81C270122144BC1F8F5
:1019280000261A60BDE80840FFF74ABF00C0FF0064
:101938000C3405504004125034C3FF00001D0A182F
:101948004006125040E0A91EACA7085078000A04CF
:10195800240612503C06125000E0105000C50D50ED
:1019680018B50450F000FA500100FA500000125067
:10197800042408E070B50D4E00250D4CA41BA410DE
:10198800A54209D10B4E00250B4C00F083F8A41B8F
:10199800A410A54205D170BD56F8253001359847E9
:1019A800EEE756F8253001359847F2E7B41A0000FB
:1019B800B41A0000B41A0000C01A0000024B014615
:1019C800186800F017B800BF14000020431E0A442E
:1019D80010B5914200D110BD11F8014B03F8014F29
:1019E800F7E702440346934200D1704703F8011B0E
:1019F800F9E7000038B50546002945D051F8043C00
:101A08000C1F002BB8BFE41800F042F81F4A1368F7
:101A1800104633B9636014602846BDE8384000F0CA
:101A280038B8A3420CD921686218934202BF1A68D9
:101A38005B685218636008BF22600460ECE71346D5
:101A48005A680AB1A242FAD919685818A0420BD1AB
:101A580020680144581819608242DDD11068526824
:101A680001445A601960D7E702D90C232B60D3E7E9
:101A7800206821188A4202BF1168526809186260FA
:101A880008BF21605C60C7E738BD00BF3C0E00207E
:101A980070477047F8B500BFF8BC08BC9E46704751
:0C1AA800F8B500BFF8BC08BC9E467047B3
:0C1AB4009D040000A5120000391700007E
:041AC00079040000A5
:101AC40000A0105000820D50000405500000FF01DA
:101AD40000FF0200FF0300FF0400FF0500FF06FFF4
:101AE400FF07FFFF08FFFF09FFFF0AFFFF0BFFFFD0
:101AF4000CFFFF0DFFFF0EFFFF0FFFFF00A00C50B8
:101B040000B00C5000C00C5000D00C5000E00C5041
:101B14000000000000000000EF0D00001F0E000098
:101B24001D12000031120000E90D0000FB1000003E
:101B3400071100004D110000ED0D00000000000031
:101B4400000000003F13000041130000991400003E
:101B5400D5140000E90D0000251300009D130000BA
:081B6400CD1300003D13000049
:081B6C007CE9FF7F010000008D
:101B7400803E0000E8030000FFFFFFFFFF000000BD
:101B84000090D003180000200000000000000000B6
:101B94000000000000000000000000000000000041
:101BA4000000000000000000000000000000000031
:101BB4000000000000000000000000000000000021
:101BC4000000000000000000000000000000000011
:101BD4000000000000000000000000000000000001
:081BE4000000000000000000F9
:04000003000009A14F
:00000001FF
